:10000000806A0320790600008552032075060000EF
:1000100000000000000000000000000000000000E0
:100020000000000000000000000000007506000055
:1000300000000000000000007506000075060000CA
:1000400019600020296000203960002049600020EC
:1000500059600020696000207960002089600020DC
:1000600099600020A9600020B9600020C9600020CC
:10007000D9600020E9600020F960002009610020BB
:1000800019610020296100203961002049610020A8
:100090005961002069610020796100208961002098
:1000A00099610020A9610020B9610020C961002088
:1000B000D9610020E9610020F96100200962002077
:1000C000FFFFFFFFFFFFFFFFFFFFFFFFFFFFFFFF40
:1000D000FFFFFFFFFFFFFFFFFFFFFFFFFFFFFFFF30
:1000E000FFFFFFFFFFFFFFFFFFFFFFFFFFFFFFFF20
:1000F000FFFFFFFFFFFFFFFFFFFFFFFFFFFFFFFF10
:100430000000000000000000FFFF0000FFFFFFFFC2
:10044000FFFFFFFFFFFFFFFFFFFFFFFFFFFFFFFFBC
:10045000FFFFFFFFFFFFFFFFFFFFFFFFFFFFFFFFAC
:10046000FFFFFFFFFFFFFFFFFFFFFFFFFFFFFFFF9C
:10047000FFFFFFFFFFFFFFFFFFFFFFFFFFFFFFFF8C
:10048000FFFFFFFFFFFFFFFFFFFFFFFFFFFFFFFF7C
:10049000FFFFFFFFFFFFFFFFFFFFFFFFFFFFFFFF6C
:1004A000FFFFFFFFFFFFFFFFFFFFFFFFFFFFFFFF5C
:1004B000FFFFFFFFFFFFFFFFFFFFFFFFFFFFFFFF4C
:1004C000FFFFFFFFFFFFFFFFFFFFFFFFFFFFFFFF3C
:1004D000FFFFFFFFFFFFFFFFFFFFFFFFFFFFFFFF2C
:1004E000FFFFFFFFFFFFFFFFFFFFFFFFFFFFFFFF1C
:1004F000FFFFFFFFFFFFFFFFFFFFFFFFFFFFFFFF0C
:10050000FFFFFFFFFFFFFFFFFFFFFFFFFFFFFFFFFB
:10051000FFFFFFFFFFFFFFFFFFFFFFFFFFFFFFFFEB
:10052000FFFFFFFFFFFFFFFFFFFFFFFFFFFFFFFFDB
:10053000FFFFFFFFFFFFFFFFFFFFFFFF002310B5DF
:100540009A4200D110BDCC5CC4540133F8E7FFFFE0
:100550000C4A1378002B13D10121117019000A4A9B
:1005600099500433802BFBD10022130007495354C8
:100570000132302AFBD1064A138053809380D38006
:100580007047C0469CDC022010DC02209DDC02206B
:1005900094DC022010B50D4C0D4A0E492000FFF7E7
:1005A000CDFF0D480D4A0E49121AFFF7C7FF0D483F
:1005B0000D4A0E49121AFFF7C1FF0D480D4A0E49A8
:1005C000121AFFF7BBFF0D4B9C6010BD000400200A
:1005D000C000000000000000042203206C52032031
:1005E00088DB02007854032080560320FC0D0300B2
:1005F000A00B0020C4DB0220640B000000ED00E033
:10060000054B06491A880A401A80A5225988D2014A
:100610000A435A807047C046000104407FADFFFF87
:1006200007B5FFF7B7FFFFF793FF00F0C5F86A467D
:1006300002231370013B5370094B6846019300F08D
:10064000A3F8084B18601868002801D030BF07BD18
:1006500000F0AAF8044B1B6800F09EF8F7E7C046CC
:1006600006000010C4DB02200008002010B5FFF7D0
:10067000C7FF10BDFEE7FFFF10B500F021F8002115
:100680000A4A0B4B9B1A002B08D10A490A4A0B480D
:10069000521A934206D1FFF7C3FF10BD013BD01899
:1006A0000170F0E7C45CCC540133F2E7C4DB0220F4
:1006B00004220320000800209C0B0020C807000033
:1006C00070B5FFF7D3FF264A264B2749274C5A52CD
:1006D000274A1078C0072CD426480578012D11D060
:1006E0002578ED07FCD5012515701578012DFCD175
:1006F0002578ED07FCD401250570002010701078D6
:100700000028FCD12278D207FCD500201A4A1B4CC5
:10071000A0541B4A1862D0779222D2009C5CE40756
:1007200013D49022D200985CC00713D5154A5A52B0
:1007300070BD2078C007FCD401250E48057000204C
:10074000107010780028FCD1DCE79854985C0028E1
:10075000FCD1E6E701209854985C0128FCD1E5E73C
:1007600003A5FFFF00E00140FE0300003CE0014064
:1007700036E0014037E001401C41013F00800001AC
:1007800007E0014000A5FFFF01B40248844601BC18
:10079000604700BFF164002001B40248844601BCF8
:1007A000604700BFBD7C002001B40248844601BC04
:1007B000604700BF7965002001B40248844601BC4F
:0807C000604700BF85620020C4
:1007C800000000009D7A00200100000000000000E9
:1007D800000000000408002002000000117C002036
:1007E8001408002000000000D57B002030080020FD
:1007F80003000001011000000201060B0952424CDF
:10080800452D414443202003027777000000000073
:10081800380800200000000000000000000100006F
:1008280000000000130000000700010000000000A5
:1008380000000000D0DB02201F000000E00B0020B9
:10084800A4080020000C0020EFDB0220300D00205F
:10085800640D0020280C0020B00B0020340D00206F
:1008680003080E0452424C452D4144432020000009
:100878000000000000000000000000000000000070
:100888000000000000000000000000000000000060
:100898000000000000000000000000000000000050
:1008A80000000000F4080020020000000000000022
:1008B800EC0D0020B80D0020080E002001000200F9
:1008C80008000101020106090952424C452D444520
:1008D8005600000028090020000000000000000069
:1008E80065DF02201007000027000000E803000071
:1008F80000000000040900209C09002000010000FD
:1009080000020000000100000D000A0007000100BD
:1009180000000000000000000000000004090020A2
:10092800A000000000000D00070101010000000008
:1009380000000000FFFF00020008000100010000A5
:100948000000000076090020000000006CDF022093
:1009580000010000000010000000000009095242D8
:100968004C452D44455600000000000000000000E2
:100978000000000000000100FFFFFFFFFFFFFFFF76
:100988003CF002204CF70220CC09002000000000B7
:10099800D43B0020F43B0020B43B002000000000C2
:1009A800000000000000000000000000000000003F
:1009B800000000000000000000000000000000002F
:1009C800000000000000000000000000000000001F
:1009D800000000000000000000000000000000000F
:1009E80000000000000000000000000043000000BC
:1009F80000000000000000000000000000000000EF
:100A0800000000000000000000000000430000009B
:100A180000000000000000000000000000000000CE
:100A2800000000000000000000000000430000007B
:100A380000000000000000000000000000000000AE
:100A4800000000000000000000000000430000005B
:100A5800000000000000000000000000000000008E
:100A6800000000000000000000000000430000003B
:100A7800000000000000000000000000000000006E
:100A8800000000000000000000000000430000001B
:100A9800000000000000000000000000000000004E
:100AA80000000000000000000000000043000000FB
:100AB800000000000000000000000000000000002E
:100AC800000000000000000000000000615B002042
:100AD8005B55002000000000B13A0020451D0020B1
:100AE800D6140020D6140020D6140020D6140020D6
:100AF800D6140020D6140020D6140020D6140020C6
:100B0800D6140020FFFFFFFFFFFFFFFFFFFFFFFFDF
:100B1800FFFF000001004153434949000000000065
:100B280000000000000000000000000000000000BD
:100B38000000000000004153434949000000000044
:100B4800000000000000000000000000000000009D
:0C0B58000000000000000000ADDEFECA3E
:100B6400BC160020E4210020841E00206C1E0020FE
:100B7400020002000000020004000000020006005F
:100B8400000002000800000002000A000000030048
:100B94000D00010003001100020002001400020015
:100BA40000280128022803280018002A012A042A00
:100BB400A62AC92A0118052A02297777787779772E
:100BC4000A0300002A020500012A020700042A027F
:100BD4000900A62A020B00C92A200E00052A1A12AF
:100BE4000078770A15007977000001000100000001
:100BF40000000000010102000C000000E80B0020CE
:100C04000101050004000600000C0020030114008B
:100C140000000A00A40800200101050006000600E7
:100C2400050C00200101020000000C00B80800209F
:100C340001010500080006000A0C0020010108005B
:100C440000000E00BA080020010105000A00060099
:100C54000F0C00200101010000001000C208002058
:100C6400010105000D000600140C00200101010023
:100C740000001200C308002001010200100000005F
:100C8400F40B00200101050011000600190C0020DE
:100C9400000104000000160000000000030102002F
:100CA40013001800EFDB0220010102000000000025
:100CB400FA0B002001010500140006001E0C0020A0
:100CC40003011F0000001C00C408002003010200EF
:100CD40000001800F1DB02200101050000000600FD
:100CE400230C00200301010000001E00E308002083
:100CF40000000000010000000000000001000B00E3
:100D04000004000001000000000000000C000F00BF
:100D1400050500000100000000000000100015009F
:100D24000607000000000100100008000100000098
:100D34000600020014000A00030000000C00050075
:100D440000000E000700000010000900000012005F
:100D54000B00000014000C00000016000E00000040
:100D640018000F0013001A00100000001C001200ED
:100D740000001E0015000000110013000000080010
:100D84001F000000F0080020010000000000000027
:100D9400000000000000000000000000000000004F
:100DA40000000000EB860020F786002013000100FD
:100DB400020002000000000000000000000000002B
:100DC400A1860020C5860020140015000200010041
:100DD400010000000000000000000000000000000E
:100DE40000000000000000000000000000000000FF
:100DF40000000000658600208386002036454648B2
:100E0400496B5253565A5B5C5D5E5F80818A8D8E5E
:100E14008F96999A9FC0C1C2C3C4E5E6C7C8CED015
:100E2400D1D4D6DC1CE001400070044004700440BE
:100E340008700440F565002011660020256F00202D
:100E440045700020B17000202D710020C571002074
:100E5400597200207D7200209D7200203D7900208F
:100E6400D5790020317A00208D7A0020000000001E
:100E74000600000000000000100000000000000058
:100E840008000000000000000C000000000000004A
:100E9400100000000000000004000000000000003A
:100EA4001800000000000000110000000000000015
:100EB40020000000000000000D0000000000000001
:100EC40040000000000000000500000000000000D9
:100ED400600000000000000012000000000000009C
:100EE40080000000000000000E0000000000000070
:100EF40000010000000000000600000000000000E7
:100F04008001000000000000130000000000000049
:100F140000020000000000000F00000000000000BC
:100F240000040000000000000700000000000000B2
:100F340000080000000000000300000000000000A2
:100F440003020A0140120440813C0020ED3C0020D1
:100F540064DD02200000000000000000000000002A
:100F64000001100C0D0C07001A0000001A0000000C
:100F7400190000000300000003000000030000004B
:100F8400000000000000000000000000000000005D
:100F94000000000000000000216C0020896C00208B
:100FA400896B0020000000004000000000000000E9
:100FB400800000000000000080000000000000002D
:100FC400A000000000000000BA00000000000000C3
:100FD400000000000000000000010000000000000C
:100FE4008100000000000000740100000000000007
:100FF40040000000000000000002000000000000AB
:10100400A100000000000000E80200000000000051
:1010140001000000000000000004000000000000C7
:101024008200000000000000D00500000000000065
:101034004100000000000000000800000000000063
:10104400A200000000000000A00B0000000000004F
:10105400020000000000000000100000000000007A
:1010640083000000000000004017000000000000A2
:10107400420000000000000000200000000000000A
:10108400A300000000000000802E0000000000000B
:101094000300000000000000004000000000000009
:1010A4002300000000000000005D000000000000BC
:1010B4004300000000000000008000000000000069
:1010C400E30000000000000000BA0000000000007F
:1010D400C300000000000000000001000000000048
:1010E4006300000000000000040000000000000095
:1010F40000000000000000001000000000000000DC
:10110400010000000000000040000000000000009A
:1011140002000000000000000001000000000000C8
:101124000300000000000000FB000200FFFFFF506E
:101134009074FFFFFFFFFFFF00F0170000000000A6
:10114400A00F0710000100000000000000000000D4
:10115400000000000000000050F402209CF4022073
:101164006CF40220C812032064EF022028F7022046
:10117400A8F4022048F702207270615F726E640066
:101184007270615F70756200253032583A253032D2
:10119400583A253032583A253032583A25303258A8
:1011A4003A253032582025730025303278003A0031
:1011B4002C004C696E6B204C61796572202F20489D
:1011C40043492056657273696F6E0A00484349208B
:1011D40076657273696F6E202020202020202020E5
:1011E40020203A203078253032780A0048434920BC
:1011F4007265766973696F6E20202020202020207C
:1012040020203A203078253034780A004C696E6BFF
:10121400204C617965722076657273696F6E202047
:1012240020203A203078253032780A004C696E6BE1
:10123400204C617965722073756276657273696F8B
:101244006E203A203078253034780A004D616E756E
:1012540066616374757265722049442020202020E1
:1012640020203A203078253034780A00486F73748F
:1012740020737461636B2056657273696F6E0A0024
:101284006D616A6F722076657273696F6E202020BB
:101294002020202020203A203078253032780A007F
:1012A4006D696E6F722076657273696F6E2020208F
:1012B4002020202020203A203078253032780A005F
:1012C4007375626D696E6F722076657273696F6E85
:1012D4002020202020203A203078253032780A003F
:1012E400424C45206D6F64756C6520566572736958
:1012F4006F6E0A006D616A6F72207C206D696E6F7B
:10130400722076657273696F6E203A2030782530CA
:1013140038780A006C696220747970652020202076
:10132400202020202020202020203A203078253022
:1013340038780A006761703A20636F6E6E65637473
:10134400656420636F6E6E5F68646C3A3078253034
:1013540034582C20616464723A25730A0067617002
:101364003A20646973636F6E6E65637465642063A9
:101374006F6E6E5F68646C3A3078253034582C2078
:10138400616464723A25732C20726561736F6E3ADE
:101394003078253032780A0074785F6F637465742E
:1013A40073203A203078253034780A0074785F74DA
:1013B400696D652020203A203078253034780A0081
:1013C40072785F6F6374657473203A2030782530C7
:1013D40034780A0072785F74696D652020203A20A1
:1013E4003078253034780A0074785F706879203A50
:1013F400203078253034780A0072785F706879205C
:101404003A203078253034780A00636F6E6E5F6955
:101414006E7476202020203A203078253034780AE3
:1014240000636F6E6E5F6C6174656E6379203A2041
:101434003078253034780A007375705F746F20201B
:1014440020202020203A203078253034780A006388
:101454006F6E6E5F68646C203A2030253034782CCF
:1014640020706173736B6579203A20253036640AE5
:10147400006E756D65726963203A20253036640A02
:10148400004C544B203A202573200A0049524B202B
:101494003A202573200A0072656D6F7465206964B3
:1014A4002061646472203A202573200A0073656306
:1014B400203A203078253032782C206D6F646520F6
:1014C4003A203078253032782C2020626F6E6420E8
:1014D4003A203078253032782C206B65795F736937
:1014E4007A65203A203078253032780A00206C6FF3
:1014F40063616C207270613A2573200A0000000059
:10150400471D00204B1D00200000000000000000CB
:10151400C9990020000000001A1C00201F1C002094
:1015240000000000000000005592002000000000B0
:1015340062180020EB1C00200000000000000000E6
:101544008995002081950020A71C0020AC1C002058
:101554000000000000000000BD9300200000000017
:10156400151D00201A1D00200000000000000000CE
:101574005D970020E996002040150020A01500206A
:10158400701500208815002058150020EC16002046
:10159400041700201C1700204C170020D41600202C
:1015A40034170020706173736B6579006E756D6319
:1015B4006D7000796573006C6F63616C0072656DAA
:1015C4006F7465006164647200616C6C006E6F74AA
:1015D4005F636F6E6E002D776C0064756D6D795F5F
:1015E40069726B00757064617465006465665F7030
:1015F400687900646174615F6C656E00636F6E6E20
:101604005F68646C3D3078253034582C2062646106
:101614006464723D25730A0073746F7000696E769A
:10162400616C69642069726B2073697A650A006E63
:10163400657400646576006E65745F70756200643D
:1016440065765F707562006E65745F726E640064C7
:1016540065765F726E640072656D6F7665006765AE
:1016640074006C727061006F666600726567006476
:10167400656C00636C65617200000000D319002082
:10168400D7190020B81500200B000000000000004E
:1016940000000000F61A0020FF1A002000000000DD
:1016A40000000000F18F002000000000891A0020D3
:1016B400901A002000000000000000000D9200209D
:1016C40000000000BA1A0020C21A00200000000026
:1016D400000000005598002000000000841B00203A
:1016E400891B00200000000000000000E58F00209E
:1016F400059200204B1A00204F1A00200000000021
:1017040000000000C98F0020000000001716002010
:10171400D41B0020000000000000000039910020CC
:10172400000000000F110000841800200E110000BA
:10173400701800201011000081180020021400000D
:101744008D180020031400009F18002004140000CA
:10175400B318002008140000C0180020061400006C
:10176400CE18002007140000DB1800200C11000024
:10177400E318002012110000EC1800201D110000D5
:10178400011900202C110000151900201E11000061
:10179400281900202011000034190020081100002D
:1017A40040190020091100004C1900202B110000E1
:1017B40059190020281100006D1900201B11000088
:1017C400771900201C110000891900202211000043
:1017D4009619002021110000A319002018110000FF
:1017E400AB19002005110000451900200611000066
:1017F400511900200A110000BF190020FFFF00004A
:10180400D6140020424C455F4741505F4556454E33
:10181400545F006C656761637900657874006E6F6E
:101824006E2D636F6E6E00706572696F646963001C
:101834004352454154455F434F4E4E5F434F4D50D5
:1018440000444953434F4E4E5F494E440050415368
:10185400534B45595F454E5452595F5245510050C0
:101864004153534B45595F444953504C41595F527E
:101874004551004E554D5F434F4D505F5245510009
:10188400504545525F4B45595F494E464F005041C4
:101894004952494E475F434F4D5000454E435F43C5
:1018A4004847005343414E5F4F464600574849540A
:1018B400455F4C4953545F434F4E465F434F4D5031
:1018C4000052534C565F4C4953545F434F4E465F4E
:1018D400434F4D5000505249565F4D4F44455F535E
:1018E40045545F434F4D50005250415F454E5F4356
:1018F4004F4D500052445F5250415F434F4D500092
:10190400504552445F4144565F4F4E005045524447
:101914005F4144565F4F464600504552445F4C4930
:1019240053545F434F4E465F434F4D500053594EFF
:10193400435F5445524D005345545F444154415F05
:101944004C454E5F434F4D5000444154415F4C451C
:101954004E5F434847005048595F5345545F434FD7
:101964004D50005048595F55504400434F4E4E5F10
:10197400504152414D5F5550445F434F4D500041DB
:1019840044565F5345545F52454D4F56455F434F50
:101994004D50006761700053756220436F6D6D6137
:1019A4006E643A206164762C207363616E2C20632C
:1019B4006F6E6E2C20646973636F6E6E2C20737966
:1019C4006E632C20776C2C206465766963652C200B
:1019D400707269762C20617574682C207665720AA1
:1019E400547279202767617020737562636D642077
:1019F40068656C702720666F72206D6F7265206950
:101A04006E666F726D6174696F6E007665720055F3
:101A1400736167653A20676170207665720A47656D
:101A240074204C4C2F4843492C20486F73742C204D
:101A34006C69622C20424C45206D6F64756C652086
:101A440076657273696F6E2E0064657669636500EE
:101A540055736167653A20676170206465766963D0
:101A6400650A4C69737420636F6E6E656374696E86
:101A740067206465766963657300646973636F6E78
:101A84006E0055736167653A2067617020646973FD
:101A9400636F6E6E20636F6E6E5F68646C0A446978
:101AA40073636F6E6E656374206120636F6E6E6521
:101AB4006374696F6E00636F6E6E5F636667005573
:101AC400736167653A2067617020636F6E6E5F6350
:101AD400666720287570646174657C646174615FF5
:101AE4006C656E7C7068797C6465665F7068792962
:101AF400200A55706461746520636F6E6E6563744B
:101B0400696F6E20706172616D6574657273207C9B
:101B140020536574207061636B6574206461746123
:101B2400206C656E677468207C205365742050486F
:101B340059207C205365742044656661756C74205B
:101B44005048590073796E630055736167653A2094
:101B54006761702073796E632063726561746520B8
:101B64007C207465726D20200A5374617274207332
:101B7400796E632065737461626C6973686D656EF8
:101B840074207C2074656D696E6174652073796E50
:101B9400632E200055736167653A20676170207772
:101BA4006C20287265677C64656C7C636C6561720B
:101BB400290A5265676973746572206F72206465BF
:101BC4006C657465206F7220636C65617220776840
:101BD400697465206C6973742E00617574680055AE
:101BE400736167653A2067617020617574682028A5
:101BF40073746172747C706173736B65797C6E75D8
:101C04006D636D7029207B636F6E6E5F68646C7C9E
:101C1400706173736B65797C7965737D0A53746144
:101C240072742070616972696E67206F7220656ECC
:101C34006372797074696F6E2E206F7220526570B2
:101C44006C7920706173736B657920656E74727939
:101C5400206F72206E756D6572696320636F6D709D
:101C6400617269736F6E0070726976005573616793
:101C7400653A206761702070726976207B69726BA7
:101C84007D207B707269766163795F6D6F64657DB9
:101C94000A536574206C6F63616C206465766963B4
:101CA4006520707269766163792E0055736167658A
:101CB4003A2067617020636F6E6E207B616464728A
:101CC4007D0A43726561746520636F6E6E6563742B
:101CD400696F6E2E007363616E0055736167653AB8
:101CE400205374617274203A2067617020736361B9
:101CF4006E2073746172740A53746F70203A2043B7
:101D040074726C2D432E00616476005573616765AF
:101D14003A206761702061647620286C656761638E
:101D2400797C6578747C6E6F6E2D636F6E6E7C70DB
:101D34006572696F64696329202873746172747CA5
:101D440073746F70290A5374617274206F722073F4
:101D5400746F70206164766572746973696E672E3E
:101D640000000000EA1E0020F01E00200000000019
:101D740000000000AD9F002000000000021F0020B2
:101D8400081F00200000000000000000B59F002094
:101D940000000000BC1D0020A41D00204E4F54452F
:101DA4003A205468697320636F6E736F6C652064A6
:101DB4006F6573206E6F7420776F726B2064757219
:101DC400696E6720536F667477617265205374611E
:101DD4006E646279204D6F64652E0A00546F20652D
:101DE4007869742066726F6D2074686520536F661D
:101DF4007477617265205374616E646279204D6FEB
:101E040064652C20706C65617365205055534820BF
:101E140074686520535732206F6E207468652062A1
:101E24006F6172642E0A006F66660A009C1E0020B1
:101E3400A01E0020D41D00200200000000000000AD
:101E4400000000001A1F00201E1F0020C41F0020D5
:101E5400010000000000000000000000626C65004A
:101E640053756220436F6D6D616E643A20726573C1
:101E740065742C20636C6F73650A54727920276231
:101E84006C65207375622D636F6D6D616E6420687F
:101E9400656C702720666F72206D6F726520696EA5
:101EA400666F726D6174696F6E00636C6F73650049
:101EB40055736167653A20626C6520636C6F736566
:101EC4000A0072657365740055736167653A206230
:101ED4006C652072657365740A00737973005375B9
:101EE4006220436F6D6D616E643A20737462790A87
:101EF4005472792027737973207375622D636F6D23
:101F04006D616E642068656C702720666F72206D49
:101F14006F726520696E666F726D6174696F6E00B1
:101F2400737462790055736167653A20737973201D
:101F34007374627920286F6E7C6F66667C67657443
:101F4400290A5065726D697420746F20656E74651A
:101F54007220736F667477617265207374616E6446
:101F64006279206F72206E6F74000000601F002081
:101F7400651F00200000000000000000C59F002035
:101F840000000000AC1F00202B0063757272656EA8
:101F9400742072656769737465720064617461208A
:101FA400666C61736800257320726573756C743A8E
:101FB4003078253034582C20706172616D5F6C6507
:101FC4006E3A25640A0020636F6E6E5F68646C3A33
:101FD4003078253034580A0020637572725F747843
:101FE4005F7077723A2573256464426D0A00206D30
:101FF40061785F74785F7077723A25732564644200
:102004006D0A00424C455F56535F4556454E545F3A
:1020140054585F544553545F53544152540A004238
:102024004C455F56535F4556454E545F54585F5474
:102034004553545F5445524D0A00424C455F565334
:102044005F4556454E545F52585F544553545F5351
:10205400544152540A00206E756D206F66204F4B18
:1020640020207061636B6574733A25750A00206ED5
:10207400756D206F6620457272207061636B6574A4
:10208400733A25750A002061766520525353493A04
:102094002573256464426D0A00206D6178205253D3
:1020A40053493A2573256464426D0A00206D696EB4
:1020B40020525353493A2573256464426D0A002023
:1020C4004E6F74653A20313237206D65616E73202E
:1020D400746861742052535349206973206E6F747D
:1020E40020617661696C61626C652E0A00424C4520
:1020F4005F56535F4556454E545F5345545F434FB7
:1021040044494E475F534348454D455F434F4D5007
:102114000A0020726620706F7765723A25730A0090
:10212400202121204D435520736F667477617265B9
:102134002072657365742021210A00206164647231
:102144003A2573206F6E2025730A002072616E6435
:102154005F76616C3A200025303258002073746138
:1021640074653A25642028747820666C6F7720257E
:1021740073290A00206275666665725F6E756D3A32
:1021840025750A002063685F6D61703A30782530E8
:1021940032780A0064660063757272006D63755F5D
:1021A400727374007C2300207F2300209429002074
:1021B400070000000000000000000000424C455FE2
:1021C40056535F4556454E545F5345545F54585FCC
:1021D400504F57455200424C455F56535F45564554
:1021E4004E545F4745545F54585F504F5745520013
:1021F400424C455F56535F4556454E545F54585FB5
:10220400544553545F535441525400424C455F5615
:10221400535F4556454E545F54585F544553545F7D
:102224005445524D00424C455F56535F4556454E0A
:10223400545F52585F544553545F535441525400B1
:10224400424C455F56535F4556454E545F54455383
:10225400545F454E4400424C455F56535F455645D6
:102264004E545F5345545F434F44494E475F534375
:1022740048454D455F434F4D5000424C455F5653D2
:102284005F4556454E545F52465F434F4E54524F3E
:102294004C5F434F4D5000424C455F56535F45568B
:1022A400454E545F5345545F414444525F434F4D40
:1022B4005000424C455F56535F4556454E545F4768
:1022C40045545F414444525F434F4D5000424C4596
:1022D4005F56535F4556454E545F4745545F5241E0
:1022E4004E4400424C455F56535F4556454E545F3D
:1022F40054585F464C4F575F53544154455F4348CD
:102304004700424C455F56535F4556454E545F5314
:1023140045545F5343414E5F43485F4D4150004233
:102324004C455F56535F4556454E545F4745545F91
:102334005343414E5F43485F4D4150007673005311
:10234400756220436F6D6D616E643A207478702CF1
:1023540020746573742C20616464722C2073636828
:10236400656D652C2072666374726C2C2072616ECC
:10237400640A54727920277673207375636D642020
:1023840068656C702720666F72206D6F72652069B6
:102394006E666F726D6174696F6E007363616E5FF8
:1023A40063685F6D61700053756220436F6D6D618A
:1023B4006E643A207365742C206765740A547279CC
:1023C40020277673207363616E5F63685F6D61704D
:1023D400207375636D642068656C702720666F7266
:1023E400206D6F726520696E666F726D6174696FBE
:1023F4006E0055736167653A207673207363616E6E
:102404005F63685F6D6170206765740A4765742057
:102414007363616E206368616E6E656C206D6170BC
:102424000055736167653A207673207363616E5F4C
:1024340063685F6D617020736574203C63685F6DD1
:10244400617028312D37293E0A5365742073636106
:102454006E206368616E6E656C206D617020666FBE
:1024640072207573650072616E64005573616765EF
:102474003A2076732072616E64203C72616E645FF0
:1024840073697A6528342D3136293E0A47657420EC
:1024940072616E646F6D206E756D6E65722034208E
:1024A400746F2031362062797465730072666374C8
:1024B400726C0055736167653A20767320726663A7
:1024C40074726C203C706F776572286F6E7C6F66D7
:1024D40066293E203C6F7074696F6E28307C312908
:1024E4003E203C636C76616C28686578293E203C0C
:1024F400736C775F636C6B28686578293E203C7445
:10250400785F706F77657228302D32293E203C72D7
:10251400665F6F707428686578293E0A5246207099
:102524006F77657220636F6E74726F6C007363688B
:10253400656D650055736167653A20767320736332
:1025440068656D65203C736368656D6528686578AA
:10255400293E0A5365742064656661756C74206352
:102564006F64696E6720736368656D65206F6620AC
:10257400436F646564205048590053756220436F6B
:102584006D6D616E643A207365742C206765740AFE
:1025940054727920277673206164647220737563A2
:1025A4006D642068656C702720666F72206D6F7291
:1025B4006520696E666F726D6174696F6E00557324
:1025C4006167653A2076732061646472206765747C
:1025D4002028637572727C64662920287075627C79
:1025E400726E64290A4765742042442061646472EF
:1025F4006573730055736167653A2076732061646F
:102604006472207365742028637572727C64662911
:1026140020287075627C726E642920616464722063
:102624005B6D63755F7273745D0A53657420424415
:102634002061646472657373007465737400537508
:102644006220436F6D6D616E643A2074782C207241
:10265400782C20656E640A5472792027767320746E
:10266400657374207375636D642068656C702720CE
:10267400666F72206D6F726520696E666F726D6130
:1026840074696F6E0055736167653A2076732074C0
:1026940065737420656E640A5478206F72205278D2
:1026A400207465737420656E6400727800557361DC
:1026B40067653A2076732074657374207278203CC1
:1026C400636828302D3339293E203C7068792831DD
:1026D4002D33293E0A5265636569766572207465F7
:1026E4007374207374617274007478005573616735
:1026F400653A2076732074657374207478203C6383
:102704006828302D3339293E203C646174615F6C44
:10271400656E28302D323535293E203C7061796C48
:102724006F616428302D37293E203C706879283148
:102734002D34293E203C74785F706F7765722830A1
:102744002D32293E203C6F7074696F6E28302D3312
:10275400293E203C6E756D5F6F665F7061636B65CB
:102764007428302D3635353335293E0A5472616D5F
:10277400736D697465722074657374207374617207
:1027840074007478700053756220436F6D6D616ED0
:10279400643A207365742C206765740A5472792036
:1027A40027767320747870207375636D6420686570
:1027B4006C702720666F72206D6F726520696E667B
:1027C4006F726D6174696F6E0055736167653A204D
:1027D4007673207478702067657420636F6E6E5F03
:1027E40068646C0A47657420547820706F7765724A
:1027F4000055736167653A2076732074787020738E
:10280400657420636F6E6E5F68646C203C74785FDF
:10281400706F65777228302D32293E0A5365742013
:10282400547820706F776572000000000416002051
:10283400BA250020B4280020020000000000000097
:10284400000000009E160020FE250020000000006D
:1028540000000000F9A1002000000000041F002077
:102864003426002000000000000000007DA00020AD
:10287400000000009C2800208428002000000000A4
:10288400FC21002016220020302200204B220020B0
:10289400652200208022002096220020BA220020F7
:1028A400D7220020F22200200D2300202323002021
:1028B40000000000422300205F230020A624002003
:1028C400AB240020000000000000000029A100202B
:1028D40000000000EC240020F3240020000000008D
:1028E4000000000049A1002000000000DB230020BC
:1028F400E7230020742900200200000000000000EB
:10290400000000009E160020322400200000000079
:102914000000000049A0002000000000041F002067
:102924006124002000000000000000005BA00020E3
:10293400000000005C290020442900206D250020AF
:10294400742500200000000000000000D9A1002030
:10295400000000001C2A0020B02900206C28002060
:102964007C29002014290020FC2800202C29002088
:10297400792600207E260020F8290020030000008C
:102984000000000000000000E6260020C52600200C
:10299400000000000000000019A100200000000059
:1029A400EA260020ED2600200000000000000000C0
:1029B4005DA2002021A10020042A0020E02900209B
:1029C400C8290020292700202C270020000000000F
:1029D400000000008DA2002021A10020C2270020B9
:1029E400C6270020642A0020020000000000000026
:1029F400000000009E1600200928002000000000AE
:102A04000000000005A3002000000000041F0020B7
:102A140031280020000000000000000025A3002051
:102A2400000000004C2A0020342A00204142434484
:102A3400636F6D6D616E64206572726F722E2072A9
:102A44006573756C74203A203078253034780A0028
:102A54002C20636F6E6E5F68646C203A203078259A
:102A6400303478002C206164765F68646C203A20EE
:102A74003078253034780072656365697665202581
:102A840073257320726573756C74203A2030782531
:102A94003034780025733A20756E7265636F676E03
:102AA400697A6564206F706572616E64730A001BD5
:102AB4005B256444001B5B256443001B5B25644762
:102AC400001B5B4A0024002573200068656C7000BD
:102AD4006E6F2068656C702E0A006E6F20657865D5
:102AE400632E0A0025733A20636F6D6D616E642056
:102AF4006E6F7420666F756E640A001B37001B5B73
:102B04004B001B3800256300A00000003600FFF9CD
:102B14000008FFFFFF509074DADBDCDCDBDA3FE90E
:102B2400E2E8F8E218F01F60F700BE00D99022FC3A
:102B340030000F0088E00F0F082020030183405865
:102B440005006800040404101520CB3FE80390013D
:102B540004009001FCC7020000001E008301E0E2B3
:102B6400E3DF40340000401F48AE4A036B94040482
:102B740023330111000000000101020404050607CB
:102B8400080A0A0B0B0B0B0FECECF2F5F5FAFBFC45
:102B9400FD000001010101040F0FA601A701A80116
:102BA400A901AA01AB01AC01000000000F0F010F45
:102BB4000A01EEEEF3F3F6F6FAFAFBFCFCFDFFFF76
:102BC400FF00ECECF2F5F5FAFBFCFD00000101015D
:102BD40001040101030305050707080A0A0B0D0D8B
:102BE4000D0F0101020404050607080A0A0B0B0B6A
:102BF4000B0F00005200C8006B90CC00302F6C000B
:102C04007800FC0020829A0546009C05A6018005F8
:102C140044002C01E0E25A01E35F56014034F80F0E
:102C2400488ED8008301E6000F00620090015A012B
:102C3400E3DF7C014842EC0F010050010200580020
:102C44000000480100105800010048010010140160
:102C54000600580000009C0F040000005D00FE0602
:102C64000400D0060706D8062A00FE060600D00691
:102C74000B0DD8065505DC063E3EFE06040000009A
:102C84005E0092054200C8006B94CC0004048A05DF
:102C940002018C056100FC00D9901A050E001C0588
:102CA4002000CA0F2333CC0F0111EC0F0000F80FE2
:102CB40048AE1A0773004207202456077E195807A6
:102CC40099995C07210066077E16BE07F802C607BD
:102CD400073DCA070050CC070E00DA07AA0AE60728
:102CE4001D18F2070000D0878080D2878080D487A7
:102CF4008080D6878080D8878080DA878080DC8750
:102D04008080DE878080E0878080E2878080E4871F
:102D14008080E6878080E8878080EA878080EC87EF
:102D24008080EE878080F0878080F2878080F487BF
:102D34008080F6878080FFFFFFFF32070709340792
:102D4400050636070304380702033E070F0046074B
:102D54007B00B0070000FA070A0CFC070F14FE07FB
:102D6400181F4287030344870303468703034887E6
:102D740003034A8703034C8703034E870300FFFFC3
:102D8400FFFF180761001A07730042072024560743
:102D94007E19580799995C07210066077E16BE07BD
:102DA400F802C607073DDA07AA0AE6071D38F20744
:102DB4000000D0878080D2878080D4878080D687A7
:102DC4008080D8878080DA878080DC878080DE8777
:102DD4008080E0878080E2878080E4878080E68747
:102DE4008080E8878080EA878080EC878080EE8717
:102DF4008080F0878080F2878080F4878080F687E7
:102E0400808006C70100FFFFFFFF32070709340770
:102E140005063607030438070203B0070000FA0763
:102E24000A0CFC070F1442870303448703034687F5
:102E34000303488703034A8703034C8703034E872E
:102E44000300FFFFFFFF0004040001040800020464
:102E540014000304200004042C00050248000601A9
:102E64008000070804017461736B0000070E1313DC
:102E7400130D0C1310130A0913131313070313135D
:102E84001313131313071313131308131313131325
:102E940013131313131313131313131313131313FE
:102EA400131313131313031313131313130E131204
:102EB400E2E3E6FFFF0D0808080808080808080808
:102EC4000308080808080808090208080D08080883
:102ED4000808080808080803080808080808080972
:102EE400DD2401201925012002000200FF00040056
:102EF4000400FF000800060014000A000200FF009E
:102F04000C000400FF00100006001400180001006B
:102F1400FF00FFFFFFFFFFFFFF2FFFFF0F00000079
:102F24000000000041AE02201DAF02201DAF0220B0
:102F34001DAF02201DAF022081B3022041B4022044
:102F44001DAF02201DAF02201DAF02201DAF0220C5
:102F54001DAF02201DAF02201DAF02201DAF0220B5
:102F64001DAF02201DAF02202DAF0220A9AF022009
:102F7400070C040404050404040404040405040400
:102F84000404040B04040C0406060C0404040606DE
:102F940006080404040404040404040404040800E7
:102FA400D96501204566012045660120456601205A
:102FB4001966012085BF022095BF02208DBF022023
:102FC4007DBF02209DBF0220E56E0120ED6E012031
:102FD400F96801200169012021660120256601208C
:102FE4002D66012035660120096901201969012037
:102FF4003D660120116901209D6E01204D6601206E
:10300400F16A0120FD6A0120056B0120456601205B
:10301400556601205D660120656601202169012055
:103024002969012085690120956901208D690120A4
:10303400E566012061670120C1680120C96801209B
:10304400D1680120D96801209D680120A76801206A
:10305400B1680120B96801209D690120616A0120DD
:10306400596A0120516A0120E9680120F1680120B0
:10307400496601204966012049660120496601200C
:1030840049660120496601204966012049660120FC
:1030940049660120496601204966012049660120EC
:1030A40049660120496601204966012049660120DC
:1030B40049660120496601204966012049660120CC
:1030C40049660120496601204966012049660120BC
:1030D40049660120E1680120ED700120FB700120A8
:1030E400FB700120FB700120FD7001200D71012097
:1030F400FB7001204B710120617101207771012067
:103104007D710120A37101201B720120FB7001203D
:10311400FB700120FB700120AD710120C171012001
:10312400A7720120C971012099720120FD7201204A
:10313400FD710120FB7001200B73012043730120FA
:103144005F730120FB700120D9710120DF71012020
:10315400FB700120D57301202B7401203D740120E4
:10316400FB70012063740120FB700120DF740120D7
:103174002175012053750120FB700120FB70012093
:10318400FD740120057501200D75012013750120C2
:10319400FB7001207D740120B17401208B74012027
:1031A400BF740120CD740120FB700120FB7001204D
:1031B400FB700120FB700120FB700120FB700120DB
:1031C400FB700120FB700120FB700120FB700120CB
:1031D400FB700120FB700120FB700120FB700120BB
:1031E400FB700120FB700120FB700120FB700120AB
:1031F400FB700120FB700120FB700120FB7001209B
:10320400FB700120FB700120FB7001205B75012025
:103214007575012079750120797501207975012072
:10322400577601207D750120E9750120D1750120B3
:10323400D1750120DD750120ED7501203D76012059
:1032440051770120E97701204B7A01204F7A012040
:10325400537A0120537A0120CD760120637A01202C
:103264008D7601203D7701205B7601207975012060
:10327400ED77012001780120117801207975012072
:10328400877A0120937A0120A77A012051780120BE
:10329400BD780120DD7801203D79012015790120D8
:1032A4007975012079750120DD7A0120E97A012000
:1032B400F57A0120F97A0120AB7A0120AB7A01205A
:1032C400B77A0120C57A012041790120FB790120D8
:1032D400AD790120457901200B7A0120297A01205A
:1032E400797501207975012079750120797501209E
:1032F400797501207975012079750120797501208E
:10330400797501207975012079750120797501207D
:10331400797501207975012079750120797501206D
:10332400797501207975012079750120797501205D
:10333400797501207975012079750120797501204D
:1033440079750120FD7A012008000000060F002095
:10335400200107021900000007070E0502022000E1
:103364001C1202000103000E03060004004027079C
:103374000000070701020002030703040719F0F025
:10338400060000010007F0020F06270E00020808DD
:103394000000000004082000800000C000000000BD
:1033A400040000002822000000000000040000F7D0
:1033B400FFF77800F401FA00960064004B00320035
:1033C4001E00140005E4012007E401203FE201206F
:1033D400F9E30120B3E3012093E101203DE301205F
:1033E40091E10120F7E30120FBE30120CDE101207D
:1033F40061E30120FDE3012069E2012091E1012064
:1034040091E1012091E1012009E4012091E10120F1
:1034140091E1012091E1012071EA0120FFE3012003
:1034240001E4012003E4012091E10120A9F5012038
:10343400E7E60120E1E1012061E70120BBE301208F
:1034440087E30120F9E2012065F8012011F401204D
:1034540039E4012099E3012017E3012085EF0120DD
:103464005FE2012095F401204DFD01202DFE012095
:1034740019F90120E1F701209BE1012051E9012024
:103484009DEA01202DFC012001FD012025ED0120F4
:1034940031E801200C0802170D010102090901019C
:1034A4000602091818030101090903030503EAECDC
:1034B400F8EE0000FFFFFFFFFFFFFFFFFFFFFFFF2E
:1034C40000000000000000000000000001000000F7
:1034D400FFFFFFFFFCFFFFFFFFFFFFFFFFFFFFFFFB
:1034E40000000000000000000000000001000000D7
:1034F400FFFFFFFF4B60D2273E3CCE3BF6B053CCE0
:10350400B0061D65BC86987655BDEBB3E7933AAA21
:10351400D835C65A000000000000000000000080FA
:103524000000000000000000000000800000008097
:10353400FFFFFF7F00000100010000010001020203
:10354400030002000000000002020100020000016A
:103554000001000501000502020300020000000052
:1035640000020501000500001563022000000000B0
:10357400043700203438002011000000656C7462A8
:10358400BE83605ADB0B376038A5F5AA9183886C3B
:103594007D6402205D640220F964022001010B01B4
:1035A400020281028205030404038409060907094F
:1035B400080909090A09050A0C0B0D0D0E0F880FDD
:1035C4008710850C860E87000000000000000000B4
:1035D40000000000000000000000000000000000E7
:1035E40000000000000000006D8D022000000000BB
:1035F40000390020583900200800000096C298D8ED
:103604004539A1F4A033EB2D817D0377F240A46307
:10361400E5E6BCF847422CE1F2D1176BF551BF3710
:103624006840B6CBCE5E316B5733CE2B169E0F7CE3
:103634004AEBE78E9B7F1AFEE242E34F3030303193
:103644004238303030313032303330343035303647
:1036540030373038303930413042304330443045EF
:103664003046313031313132313331343135313624
:1036740031373138313931413142314331443145C7
:1036840031463230323132323233323432353236FC
:10369400323732383239324132423243324432459F
:1036A40032463330333133323333333433353336D4
:1036B4003337333833393341334233433344334577
:1036C4004142000001000000D9C50220FEFFFF01B5
:1036D4001DC7022001000000D9C502200600000019
:1036E400C1CF0220F8FFFF011DC70220180000000F
:1036F400FDD20220A000000075CF022047FFFF0189
:103704001DC70220E800000095CD02200001000042
:10371400E5D502201FFEFF011DC70220A000000006
:103724003DCF02205FFFFF011DC702200002000001
:1037340021C70220FFFDFF011DC70220000C00006D
:10374400D9C70220FFF3FF011DC7022000080000B3
:1037540039C90220010000004BC90220FEF7FF0115
:103764001DC702200020000075C90220004000008F
:103774006DCA0220FF9FFF011DC70220FFFFFF014A
:10378400ADCB02200080010059D10220FF7FFE0151
:103794001DC70220000004018DD80220FFFFFB009A
:1037A4001DC7022000003C0045D902200000400053
:1037B400A5D90220FFFF83001DC70220000080005E
:1037C400C1CB0220FFFF7F011DC70220F8000000CB
:1037D40095CC022007FFFF011DC70220000008014D
:1037E4009DD80220FFFFF7001DC70220FFFFFF0145
:1037F400DDCC0220010000000100000000000000F8
:1038040002000000040000000200000003000000A9
:103814000700000005000000040000000A0000008A
:1038240008000000050000000C0000000B00000070
:10383400060000000E0000000D000000070000005C
:10384400100000000F00000008000000130000003A
:103854001100000009000000160000001400000020
:103864000A00000017000000170000000B00000011
:1038740019000000180000000C0000001B000000EC
:103884001A0000000D0000001E0000001C000000D3
:103894000E000000200000001F0000000F000000C8
:1038A400220000002100000010000000240000009D
:1038B40023000000FF000000250000002500000098
:1038C4000200000025DA02200100000025DA0220AF
:1038D4000E00000065DA022002000000ADDA0220CA
:1038E4000C000000E9DA022002000000FDDA0220E8
:1038F4000C000000E9DA02200E00000025DA0220A4
:103904000C0000007DDB022002000000E9DA022046
:103914000E00000095DB0220810000000000000082
:10392400000000008200000001000000010000000F
:10393400010000000200000002000000020000007C
:103944000400000003000000030000000600000063
:1039540005000000F100000007000000070000005F
:10396400F20000000900000008000000FF00000051
:103974000A0000000A0000006047002030470020D1
:10398400424700208446002042470020264700206A
:103994004247002084460020304700203047002062
:1039A40026470020844600208C4600208C460020B8
:1039B4008C46002048470020304700203047002034
:1039C40004470020E8470020044700202647002041
:1039D40004470020E84700203047002030470020FB
:1039E40026470020E84700208C4600208C46002013
:1039F4008C460020F2470020E04A0020304A002094
:103A0400304A00202E4A0020D24A0020D24A002008
:103A1400C84A00202E4A0020D24A0020C84A00206A
:103A2400D24A00202E4A0020D84A0020D84A00203A
:103A3400D84A0020684B0020504F53495800232D8A
:103A4400302B2000686C4C006566674546470030A3
:103A540031323334353637383941424344454600F0
:103A640030313233343536373839616263646566F0
:103A7400000020202020202020202028282828285A
:103A84002020202020202020202020202020202032
:103A9400202088101010101010101010101010108A
:103AA400101004040404040404040404101010108A
:103AB4001010104141414141410101010101010145
:103AC40001010101010101010101010101101010B5
:103AD4001010104242424242420202020202020218
:103AE4000202020202020202020202020210101088
:103AF4001020000000000000000000000000000092
:103B040000000000000000000000000000000000B1
:103B140000000000000000000000000000000000A1
:103B24000000000000000000000000000000000091
:103B34000000000000000000000000000000000081
:103B44000000000000000000000000000000000071
:103B54000000000000000000000000000000000061
:103B64000000000000000000000000000000000051
:103B74000000000000000000000000000000000041
:103B84000000000000000000000000000000000031
:103B94000000000000000000000000000000000021
:103BA4000000000000000000000000000000000011
:103BB4000000000000000000000000000000000001
:103BC40000000000000000000000000000000000F1
:103BD4000000000010B5032002F0CCF9134B144987
:103BE4009A6D03200A409A659A6D1249C1240A40CD
:103BF40004219A659A6DA4008A439A659A6D0E49C8
:103C04000A409A658022996DD2010A431F219A6560
:103C14000A4B5A7882435A701A598A431100012276
:103C24000A431A5102F0A2F910BDC046FC08044030
:103C3400FF7FFFFFFFFFFFE0FFFFFEFF006000408C
:103C440070B5032002F096F9CE208021154B400078
:103C54001A58154CC90422400A431A5080221D5890
:103C6400520215431D50D2256D0058592040084377
:103C74005851585910435851043D5859204008434D
:103C84005851585910435851CC2040001D582C40CD
:103C94002143195019580A431A509638FF3802F034
:103CA40065F970BD00080440FFFFFFE010B5032074
:103CB40002F060F9CC200B4B400019580A4A11401D
:103CC400195008301958114019500430195811402E
:103CD4001950083819580A401A509A38FF3802F017
:103CE40045F910BD00080440F53C0000F8B5042473
:103CF400032002F03FF9394B39481A683949024028
:103D04001A601A68384F0A401A601A68A2431A6087
:103D140080221D68120215431D605D6805405D60C8
:103D24005D680D405D605D68A5435D605D68154339
:103D34005D609D6805409D609D680D409D609D6827
:103D4400A5439D609D6815439D60DD680540DD6069
:103D5400DD680D40DD60DD68A543DD60DD68154389
:103D6400DD60FC335D6C05405D645D6C0D405D643D
:103D74005D6CA5435D645D6C15435D649D6D3D4064
:103D84009D659D6D05409D659D6D0D409D659D6D79
:103D9400A5439D659E6D16439E65DD6D3D40DD65C5
:103DA400DD6D0540DD65DD6D0D40DD65DD6DA54333
:103DB400DD65DC6D2243DA655A6C0C4C22405A6492
:103DC4005A6C0240A0200005104358645A6C03202A
:103DD4001140596402F0CAF8F8BDC0460008044016
:103DE400FFFFFFE0FFFFFEFFFFBFFFFFFF7FFFFFBF
:103DF40010B5032002F0BEF80F4B104A19680320D7
:103E040011401960596811405960996811409960CE
:103E1400D9681140D960FC33596C11405964996DCB
:103E240011409965D96D1140D965596C0A405A649D
:103E340002F09CF810BDC04600080440F53C0000A8
:103E440010B5032002F096F80C4B0D49DA6D0320EF
:103E54000A40DA65DA6D0B490A40DA65DA6D0A4917
:103E64000A40DA650422D96D0A43DA658022D96DE5
:103E740012020A43DA6502F079F810BDFC08044026
:103E8400FFBFFFFFFFFFFFE0FFFFFEFF002243082D
:103E94008B4274D303098B425FD3030A8B4244D30E
:103EA400030B8B4228D3030C8B420DD3FF22090250
:103EB40012BA030C8B4202D31212090265D0030B0F
:103EC4008B4219D300E0090AC30B8B4201D3CB0305
:103ED400C01A5241830B8B4201D38B03C01A524147
:103EE400430B8B4201D34B03C01A5241030B8B4249
:103EF40001D30B03C01A5241C30A8B4201D3CB0234
:103F0400C01A5241830A8B4201D38B02C01A524118
:103F1400430A8B4201D34B02C01A5241030A8B421B
:103F240001D30B02C01A5241CDD2C3098B4201D333
:103F3400CB01C01A524183098B4201D38B01C01AB1
:103F4400524143098B4201D34B01C01A5241030928
:103F54008B4201D30B01C01A5241C3088B4201D3D7
:103F6400CB00C01A524183088B4201D38B00C01A84
:103F7400524143088B4201D34B00C01A5241411AAB
:103F840000D20146524110467047FFE701B50020B8
:103F940000F0F0F802BDC0460029F7D076E770477C
:103FA40003460B437FD4002243088B4274D3030996
:103FB4008B425FD3030A8B4244D3030B8B4228D337
:103FC400030C8B420DD3FF22090212BA030C8B425D
:103FD40002D31212090265D0030B8B4219D300E0FD
:103FE400090AC30B8B4201D3CB03C01A5241830B82
:103FF4008B4201D38B03C01A5241430B8B4201D332
:104004004B03C01A5241030B8B4201D30B03C01A5A
:104014005241C30A8B4201D3CB02C01A5241830AD4
:104024008B4201D38B02C01A5241430A8B4201D303
:104034004B02C01A5241030A8B4201D30B02C01A2D
:104044005241CDD2C3098B4201D3CB01C01A524194
:1040540083098B4201D38B01C01A524143098B421D
:1040640001D34B01C01A524103098B4201D30B0106
:10407400C01A5241C3088B4201D3CB00C01A52412B
:1040840083088B4201D38B00C01A524143088B42F0
:1040940001D34B00C01A5241411A00D20146524189
:1040A400104670475DE0CA0F00D04942031000D3A8
:1040B4004042534000229C4603098B422DD3030AFD
:1040C4008B4212D3FC22890112BA030A8B420CD30D
:1040D400890192118B4208D3890192118B4204D336
:1040E40089013AD0921100E08909C3098B4201D3B6
:1040F400CB01C01A524183098B4201D38B01C01AF0
:10410400524143098B4201D34B01C01A5241030966
:104114008B4201D30B01C01A5241C3088B4201D315
:10412400CB00C01A524183088B4201D38B00C01AC2
:104134005241D9D243088B4201D34B00C01A524199
:10414400411A00D20146634652415B10104601D326
:104154004042002B00D54942704763465B1000D3B0
:10416400404201B5002000F005F802BD0029F8D056
:1041740016E770477047C0468446081C6146FFE74F
:104184001FB500F0B5FB002801D40021C8421FBDB3
:1041940010B500F047FB4042013010BD10B500F0EF
:1041A400A7FB002801DB002010BD012010BDC04684
:1041B40010B500F09DFB002801DD002010BD01209A
:1041C40010BDC04610B500F053FB002801DC0020F0
:1041D40010BD012010BDC04610B500F049FB0028F9
:1041E40001DA002010BD012010BDC046F0B5CE4656
:1041F400474615042D0C2E0080B50704140C3F0C03
:104204009946030C7E435D43674363437F19340C33
:10421400E4199C46A54203D980235B029846C44412
:104224004B46514343433604360C250C2404654461
:10423400A4195918491920000CBC90469946F0BDA0
:104244009E2110B5C905041CFFF7C6FF002803D141
:10425400201C00F04BFE10BD9E21201CC90500F05F
:10426400A9FC00F043FE80231B069C466044F2E751
:10427400F0B5C6464E024702760A7B0A4400C50FD3
:10428400F7004800984600B5240E2A00DB00000E13
:10429400C90FBC468D4267D0221A002A00DCA5E073
:1042A40000283AD1002F00D193E0511E002900D0FC
:1042B400BCE00124DB1B5A0146D59B019E0930005A
:1042C40000F07AFE05388640844200DD9DE0041B40
:1042D400320020200134E240041BA64033005E1E5D
:1042E400B341002413435A0704D00F221A40042A6E
:1042F40000D004335A0129D50134FF2C00D181E0C8
:104304002A009B015B0AE4B25B02E405580AD20767
:104314002043104304BC9046F0BDFF2CE3D0802121
:104324003800C904084384461B2A00DD82E02020AB
:104334006146D140821A604690400200501E82417C
:104344000A439B1A5A01B8D45A07CED1DE082A0070
:10435400FF2C3AD1002E00D1AEE08023DB0333439F
:104364005B025B0AFF24CFE7211A002952DD0028F3
:1043740031D0FF2CB7D080203E00C0040643B446A1
:104384001B2900DDAAE020266046C840711A664653
:104394008E4031004E1EB14101435B185901D3D503
:1043A4000134FF2C00D187E0012278491A405B08D0
:1043B4000B40134397E7002C00D0A7E0002B00D05C
:1043C400B6E03B1E62D10026002273025B0AE4B20F
:1043D4009AE7140087E7002F4DD0481E002857D1D4
:1043E400634401245A01AFD50224DDE7002A24D115
:1043F400621CD2B2012ADEDDDE1B720135D5FE1A43
:104404000D005CE72A0000237EE73300604A241A8B
:10441400134068E7002963D1611CC8B201284EDD4E
:10442400FF2949D063445B080C005CE7FF2A41D0B4
:104434000A0079E701229B1A84E7002C1DD0FF288B
:1044440022D08024E404524223431B2A00DD8AE064
:104454001C002025D440AA1A93405A1E934123439A
:1044640062460400D31A0D0025E7002E00D026E78B
:1044740000220024A9E70C0035E7002B4DD0D243DD
:10448400002AEDD0FF28E0D16346FF240D002AE77F
:10449400FF290FD0010073E7002B61D0FF24002F08
:1044A40000D120E780224146D203114202D01642B5
:1044B40000D13B00FF2416E7FF24002324E7002C4F
:1044C400EAD1002B58D0002F00D10CE763445A01E5
:1044D40000D439E72E4A0C00134004E701215CE7BD
:1044E400002C1ED1002B40D0C94300290BD0FF283B
:1044F40036D01B2947DC1C002026CC40711A8B4087
:10450400591E8B4123436344040047E7002B18D111
:104514003B1E2DD00D00FF24E5E63B0004000D00FA
:10452400E1E6FF281CD08024E40449422343E0E769
:10453400002F00D1D7E6DE1B72011FD5FB1A0D0038
:10454400D1E6FF24002F00D1CDE680224046D203DD
:104554001042AFD01642ADD13B000D00FF24C2E69D
:104564006346FF24BFE601237AE73B000400BAE672
:1045740080260022F603F0E63B00B4E6331E00D0AA
:10458400E2E6002221E70123BDE7C046FFFFFF7DED
:10459400FFFFFFFBF0B557464E46DE464546E0B505
:1045A40044024300C60F83B00F1C640A1B0EB246BC
:1045B40053D0FF2B27D08022E400D20414437F225F
:1045C400524290469844002399469B467D027800C7
:1045D400FB0F6D0A000E009324D0FF2846D08023E1
:1045E4000021ED00DB041D437F384746381A4F464F
:1045F4000F43BF00B9463300009A874F53404A46E1
:10460400BA5801939746002C4ED108239946F733A4
:104614009846FD3B9B467D027800FB0F6D0A000E19
:104624000093DAD1002D26D1002001213300009A15
:104634007A4F53404246101A4A460A439200BA58E7
:104644001D009746009B2C009A468B465B46022B26
:1046540031D15346FF21002438E0002C17D1042324
:1046640099460023984601339B46AFE7FF20002D6F
:104674000BD10221DAE7280000F09EFC431F9D4085
:1046840076235B42181A0021AFE70321ADE720002F
:1046940000F092FC431F9C4076235B421B1A984611
:1046A400002399469B4691E70C239946F333984699
:1046B400FC3B9B468AE7032B00D1A5E05546012B22
:1046C40000D081E00123002100242B406402C905AD
:1046D400600ADB070843184303B03CBC9046994684
:1046E400A246AB46F0BD80240023E403FF21EDE79E
:1046F400FF210024EAE70123591A1B2966DD019AE8
:10470400134000210024E1E78023DB031C4238D05E
:104714001D4251D01C436402640A3300FF21D5E7D3
:1047240063016C01A3423BD21B2600210138012501
:104734001F0049005B00002F01DB9C4201D81B1BBA
:104744002943013E002EF3D11C00631E9C410C43FF
:1047540001007F310029CEDD630704D00F232340FD
:10476400042B00D00434230103D501002C4B8031E9
:104774001C40FE290DDD0123019AFF211340002472
:10478400A4E78023DB031C436402640A3300FF2193
:104794009CE70123019AA401640AC9B2134095E776
:1047A4001B1B1A260121C2E7009B8B469A46002454
:1047B4004CE76302E5D500258024E4032C4364021E
:1047C400640A009BFF2181E70195C1E723002020B3
:1047D400CB40411A8C40611E8C411C43630704D0BA
:1047E4000F232340042B00D00434630105D5012397
:1047F400019A01211340002468E70123019AA401CE
:10480400640A1340002161E78023DB031C43640234
:10481400640A5346FF2159E7B8390020F8390020CB
:10482400FFFFFFF770B5420045024E024C00C30F74
:104834006D0A120E760A240EC90F0120FF2A06D033
:10484400FF2C03D0A24201D1B54206D070BD002D89
:10485400FCD1FF2CFAD1002EF8D18B4206D00120D6
:10486400002AF3D12800451EA841EFE70020EDE718
:10487400F0B5420045024C02C30F48006D0A120E07
:10488400640A000EC90FFF2A1ED0FF2821D0002A77
:104894000AD16E426E41F6B200280FD1002C0DD120
:1048A4000020002D09D005E0002801D1002C01D002
:1048B4008B4211D0012158420843F0BD002EF7D09D
:1048C400012001390843F8E7002DDED002204042E0
:1048D400F3E7002CDBD0F9E78242EBDC04DBA542F2
:1048E400E8D80020A542E8D20121581E0843E4E795
:1048F400F0B542004D024C004602760A120EC30F78
:104904006D0A240EC90FFF2A16D0FF2C18D0002AD6
:104914000AD170427041C0B2002C15D0002805D0D5
:10492400012001390843F0BD002C13D0994214D062
:1049340001205B421843F6E70220002EF3D1E4E79E
:104944000220002DEFD1E2E7002DE7D10020002E58
:10495400E9D0EDE7002DE9D1EAE7A24206DCDFDB8E
:10496400AE4203D80020AE42DAD3DCE7012049424C
:104974000843D8E7F8B557464E464546DE46E0B507
:104984004702460088467F0A360EC40F002E47D0E1
:10499400FF2E24D0FB008027FF041F4300239946E9
:1049A4009A467F3E43465D025800DB0F6D0A000EB7
:1049B400984643D0FF283BD0EB0080250022ED042D
:1049C4001D437F383618731C41469B464B46614055
:1049D40013430F2B64D875489B00C3589F46002F80
:1049E40042D108239946063BFF269A46DAE7414618
:1049F400022A28D0032A00D1CEE0012A00D0ACE05C
:104A0400114000200022CCB24002D205400AE40743
:104A1400104320433CBC90469946A246AB46F8BDA1
:104A2400002F15D104239946033B00269A46B9E783
:104A3400FF200222002DC5D00322C3E7002D19D187
:104A440000200122BEE70124FF220C400020DBE706
:104A5400380000F0B1FA7626431F9F4000237642C7
:104A6400361A99469A469DE70C239946093BFF2638
:104A74009A4697E7280000F09FFA431F9D4076234B
:104A84005B42181A00229DE780200024C003FF2205
:104A9400BAE73D005246ABE73D0021005246A7E786
:104AA4003B0C9C462A04120C2B0C140060466546F1
:104AB4003F043F0C7C4342435D437B43270C9B18DC
:104AC400FF18BA4203D980235B029C466544240440
:104AD4003A04240C121993015C1EA3413F0C920E5C
:104AE4007D191A43AD0115432B0104D501235E46FC
:104AF4006A081D40154332007F32002A25DD6B070A
:104B040004D00F232B40042B00D004352B0103D5F4
:104B14003200274B80321D40FE2A94DC0124A80178
:104B2400400AD2B20C406FE78020C003074207D08E
:104B3400054205D128434002400A4446FF2263E768
:104B440038434002400AFF225EE70124A31A1B2BCC
:104B540005DD0C400022002056E75E46CBE72A0024
:104B64002020DA40C31A9D402B005D1EAB41134345
:104B74005A0704D00F221A40042A00D004335A01E1
:104B840004D5012401220C4000203DE701249B01AF
:104B9400580A0C40002237E780200124C003284330
:104BA4004002400A0C40FF222EE7C046383A00205B
:104BB400FFFFFFF7F0B54F46D64646464400C0B562
:104BC400C20F47024802400A844666467B0A4800F0
:104BD400C90F9A46240E1500DB00000E8946F60024
:104BE400FF2800D18FE001214F464F403900914208
:104BF40066D0221A002A00DC9DE000283DD1002E58
:104C040000D18BE0511E002900D0B5E001249B1B8C
:104C14005A0144D59B019F09380000F0CDF90538AD
:104C24008740844200DD96E0041B3A0020200134D2
:104C3400E240041BA7403B005F1EBB41002413431A
:104C44005A0704D00F221A40042A00D004335A0110
:104C540027D50134FF2C00D179E001229B015B0AA6
:104C6400E4B22A405B02E405580AD2072043104309
:104C74001CBC90469946A246F0BDFF2CE0D0802192
:104C8400C9040E431B2A7BDC31002020D140821A48
:104C94009640721E96410E439B1B5A01BAD45A0782
:104CA400D0D10122DF082A40FF2C33D1002F00D1BC
:104CB400A8E08023DB033B435B025B0AFF24D1E7CC
:104CC400211A00294CDD00282AD0FF2CB8D08020DE
:104CD400C00406431B2900DDAFE030002027C84094
:104CE400791A8E40711E8E4106439B195901D6D5FF
:104CF4000134FF2C00D185E001227A491A405B0877
:104D04000B4013439CE7002E00D070E76BE73B1E7B
:104D1400C5D100227B025B0AE4B2A3E714008FE74B
:104D2400002E4DD0481E002857D19B1901245A014A
:104D3400B5D50224E0E7002A25D1621CD2B2012AAB
:104D440072DD9F1B7A0135D5F71A0D0064E7012245
:104D540000232A4086E73B00634A241A13406FE786
:104D640000296CD1611CC8B201284EDDFF2949D04D
:104D74009B195B080C0063E7FF2A41D00A0081E716
:104D840001269B1B89E7002C1CD0FF2821D08024FE
:104D9400E404524223431B2A00DD96E01C00202534
:104DA400D440AA1A93405A1E93412343F31A040091
:104DB4000D002DE7002F00D02EE700220024A9E7E4
:104DC4000C003DE7002B58D0D243002AEED0FF2838
:104DD400E1D13300FF240D0032E7FF2910D0010098
:104DE40078E7002B6ED0FF24002E00D128E7802224
:104DF4005146D203114203D06146114200D133001F
:104E0400FF241DE7FF2400232CE7002CE9D1002B0D
:104E140063D0002E00D113E79B195A0100D43EE75A
:104E2400314A0C0013400BE7002C1ED1002B2FD16C
:104E3400002E4FD033000D0002E7012655E7002C69
:104E44001FD1002B43D0C94300290BD0FF2839D0F0
:104E54001B2944DC1C002027CC40791A8B40591EA6
:104E64008B4123439B19040040E7002B1AD1002EE9
:104E740024D180270022FF031BE7330004000D0028
:104E8400DEE6FF281ED08024E40449422343DFE702
:104E9400002E00D1D4E69F1B7A0100D437E7F31A21
:104EA4000D00CDE6FF24002E00D1C9E68022504635
:104EB400D2031042A4D060461042A1D133000D00A9
:104EC400FF24BDE63300FF24BAE601236EE7330076
:104ED4000400B5E6002700221CE73300B0E60123F6
:104EE400C0E7C046FFFFFF7DFFFFFFFB4102430019
:104EF400C20F490A1B0E00207E2B0DDD9D2B0CDCFE
:104F0400802000040143952B0ADC9620C31AD94063
:104F14004842002A00D108007047034BD018FBE731
:104F2400963B9940F4E7C046FFFFFF7F10B5041E8F
:104F340027D000F041F89E231B1A962B0ADC9622F8
:104F4400D21A94406402640ADBB26402DB05600A8C
:104F5400184310BD992B17DC9922D21A002A27DD99
:104F640094402200134C1440510704D00F210A40EE
:104F7400042A00D00434620112D4A401640ADBB20E
:104F8400E3E700230024E0E7B9222100D21A91408C
:104F94000A00511E8A410521091ACC401443DBE75B
:104FA400044B1C409F23A4011B1A640ADBB2CCE708
:104FB4002200D7E7FFFFFFFB1C2101231B049842BB
:104FC40001D3000C10391B0A984201D3000A083996
:104FD4001B09984201D30009043902A2105C40184D
:104FE4007047C046040302020101010100000000F1
:104FF40000000000014B18687047C046C809002033
:1050040010B5034B0100186800F08AF810BDC046C3
:10501400C809002010B5034B0100186800F036F8E9
:1050240010BDC046C809002030B50024A24201D1F9
:10503400002005E0035D651C0C5DA34201D0181B34
:1050440030BD2C00F2E7002310B59A4200D110BD08
:10505400CC5CC4540133F8E710B5884202D98B18EC
:10506400984208D300239A4207D0CC5CC45401333D
:10507400F9E78B5C8354013AFBD210BD030082181C
:10508400934200D1704719700133F9E770B50500F8
:10509400002910D00C1F2368002B00DAE418280024
:1050A40000F04DFA1D4A1368002B05D163601460AB
:1050B400280000F045FA70BDA34209D921686018A0
:1050C4008342F3D118685B6841182160EEE713004E
:1050D4005A68002A01D0A242F9D919685818A04286
:1050E4000BD120680918581819608242E0D1106861
:1050F4005268411819605A60DAE7A04202D90C23B9
:105104002B60D5E721686018824203D11068526889
:105114004118216062605C60CAE7C04654EF022017
:10512400032370B5CD1C9D43083506000C2D1ED2FB
:105134000C25A9421DD8300000F001FA254A146854
:105144002100002919D1244C2368002B03D13000FD
:1051540000F044F820602900300000F03FF8431CC0
:105164002CD10C233000336000F0EAF903E0002D69
:10517400DFDA0C233360002070BD0B685B1B1AD48C
:105184000B2B03D90B60CC18256003E08C420ED1A5
:1051940063681360300000F0D3F9200007220B305D
:1051A400231D9043C31AE7D05A42E250E4E74B6808
:1051B40063600C00EEE70C004968C2E70323C41CDB
:1051C4009C43A042E0D0211A300000F007F8431CB1
:1051D400DAD1C6E754EF022058EF0220002370B55D
:1051E400064C05000800236000F0E0FC431C03D1DA
:1051F4002368002B00D02B6070BDC0460022032022
:105204000EB410B59DB002A9029008610B48822427
:1052140088604861012040421FABC881084804CB24
:10522400A400006801938C8100F0EEF90023029A37
:1052340013701DB010BC08BC03B01847FFFFFF7FFC
:10524400C809002002780B78002A03D0013001310C
:105254009A42F7D0D01A7047031C0A7801311A70A9
:105264000133002AF9D170470023C25C0133002ABC
:10527400FBD1581E7047002330B59A420AD0013A38
:10528400C45CCD5CAC4204D19A4202D00133002C00
:10529400F6D1631B180030BD70B50400002A00D19C
:1052A40070BD0D78561E631C25700131002D05D18B
:1052B400A4189C42F4D01D700133FAE71C0032009C
:1052C400ECE70000F8B5124B06001D680F00AC6D4A
:1052D400002C16D15020FFF793FEA86504604460AB
:1052E4008460C4600461446184618462C462046350
:1052F40044638463C463046444648464C46404775A
:105304004462AA6D39003000012300F003F8F8BDAF
:10531400C8090020F0B5002804D11068002801D184
:10532400F0BD20000E000578441C3778002F04D10E
:10533400002D10D115602800F2E70136BD42F4D1EA
:10534400002BEED114600370EAE733000EE0013560
:105354001C00002F02D10D002678631C2F78BE425A
:10536400F5D1002EF1D00024591E0C701360D7E73C
:10537400F0B51F000E0087B00590039102920C98BF
:10538400347800F0C7F8082200194378751C1340DC
:105394000CD12D2C0CD101332C780193B51C002F8A
:1053A4000CD0102F14D1302C0AD011E02E00E6E7D7
:1053B40001932B2CF3D12C78B51CF0E7302C2FD192
:1053C40020222B789343582B51D110276C78023527
:1053D400019B294A39009E183000FEF7DDFD30009C
:1053E40004913900FEF752FD0121002349420200D5
:1053F4008C46180021003039092913D80C00A74223
:105404001CDD591C09D06346824206D302D104999B
:10541400A14202DB0123784320182C780135E9E707
:105424000A27D5E721004139192901D8373CE6E795
:1054340021006139192901D8573CE0E75A1C08D1E9
:10544400059A23331360029B3000002B0BD107B065
:10545400F0BD019A002A00D04042029A002AF6D0F8
:10546400039A002B00D06A1E029B1A60EFE73024D7
:10547400002FADD10837ABE7FFFFFF7F37B513002F
:10548400064A05001068046A002C00D1044C0A0086
:1054940000942900FFF76CFF3EBDC046C8090020F8
:1054A4002C0A002030B514009BB005001A00002C13
:1054B40005DA8B230360012040421BB030BD8223F8
:1054C40068469B0083810023009104919C4200D094
:1054D400631E02930593012369465B42CB81280036
:1054E4001E9B00F091F8431C01DA8B232B60002CE7
:1054F400E3D00023009A1370DFE7000007B50093A0
:1055040013000A00010002480068FFF7CBFF0EBD3C
:10551400C8090020EC300068704782B0002900D12F
:1055240001A9101E06D0002B06D013780B6010784A
:10553400431E984102B0704702204042FAE7704788
:1055440070470000F0B58E6885B007000C00039228
:1055540001939E4239D890238A89DB001A4234D0C1
:105564000325096923685B1A0293636902985D4302
:10557400EB0F5D19019B6D1001331B18AB4200D971
:105584001D00530532D529003800FFF7C9FD061E5A
:1055940009D10C233B6040230120A28940421343DC
:1055A400A38105B0F0BD029A2169FFF74CFDA389E0
:1055B400144A1A4080231343A381029B2661F618E0
:1055C40026606561019EED1AA560019BB34200D27D
:1055D4001E00320003992068FFF73EFDA3680020F7
:1055E4009B1BA36023689E192660DAE72A00380013
:1055F40000F0ADFA061EE0D121693800FFF746FD40
:10560400C7E7C0467FFBFFFFF0B59FB0029005934C
:105614008B890F0016001B0611D50B69002B0ED1C8
:105624004021FFF77DFD38603861002805D10C2347
:10563400029A013813601FB0F0BD40237B61002340
:1056440006AD6B6120336B761033AB763400237870
:10565400002B47D1A31B04930DD0A31B32003900A8
:105664000298FFF76FFF431C00D1B5E06A69049B01
:10567400944663446B612378002B00D1ACE0012293
:10568400002352426A6002A95432521801342B603A
:10569400EB60AB601370AB65584E05222178300087
:1056A40000F04AFA621C002820D12968CB0604D5F0
:1056B400532302AE20309B1918700B0704D55323D3
:1056C4002B2002AE9B19187023782A2B16D00020A9
:1056D4000A21099B2278303A092A55D9002815D085
:1056E400099313E0252BB5D00134B0E70123801BC7
:1056F4008340296814000B432B60CDE7059B181DDC
:105704001B680590002B39DB0993140023782E2B9A
:105714000BD16378621C2A2B3ED1059B02341A1DDF
:105724001B680592002B34DB0793354E2178032246
:10573400300000F001FA002806D04023801B83408B
:105744002A68013413432B60217806222D48661CF5
:10575400297600F0F1F9002846D02B4B002B2FD1ED
:105764002968059B0722C90528D59B18934308334C
:1057740005936B69039A9B186B6167E75B42EB6067
:1057840002230B432B60C0E74B4301349B180120D9
:10579400A0E701235B42C7E7002314000A201A0094
:1057A4006B6021783039092903D9002BBDD00792C9
:1057B400BBE74243013452180123F2E70733D5E72C
:1057C40005AB00933A00114B2900029800E000BF9A
:1057D4000390039B0133CCD1BB890B985B0600D4A7
:1057E40029E70120404226E705AB00933A00074B26
:1057F4002900029800F07AF8EAE7C0467E3A0020D1
:10580400843A0020883A00200000000085550020DA
:10581400F7B5150001938A680B6900900C00934258
:1058240000DA130022002B6043321278002A01D0E0
:1058340001332B6023689B0602D52B6802332B604F
:10584400062723681F4027D0230043331B785A1EA2
:1058540093412268920630D4220001994332009881
:10586400089EB047431C25D0062320682A68E168B7
:1058740003400025042B03D18D1AEB43DB171D4095
:10588400A3682269934201DD9B1AED180027BD42EB
:1058940020D1002010E00137E3682A689B1A9F4258
:1058A400D2DA22000123193201990098089EB047E8
:1058B400431CF0D101204042FEBD3020E1184331A9
:1058C400087021005A1C45310978A218433202336A
:1058D4001170C1E7220001231A3201990098089E31
:1058E400B047431CE6D00137D1E70000F0B58BB0D8
:1058F40006920A0043320793059004920A7E0C0034
:10590400109B6E2A00D18FE017D8632A2CD008D8B8
:10591400002A00D199E0582A54D026004236327029
:1059240029E0642A01D0692AF7D121681A68080697
:1059340023D5111D1960156825E0732A00D188E06C
:1059440008D86F2A29D0702AE7D1202209680A438F
:10595400226003E0752A20D0782ADED12200782143
:10596400453211706C4A30E00E001A684236111D3F
:10597400196013683370012379E04906D9D5111DE4
:1059840019600023D55E002D03DA2D23049A6D429D
:105994001370624B0A2703932FE0206819680506E9
:1059A40003D5081D18600D6805E04006F9D50D689B
:1059B400081D1860ADB2594B082703936F2A18D0FD
:1059C4000A2716E045310A70544A03921A6821687E
:1059D400101D18601568080622D5CB0702D52023B0
:1059E400194321601027002D03D1202322689A43F4
:1059F40022602300002243331A706368A360002BE3
:105A04005CDB0422216891432160002D58D1049E5F
:105A1400002B64D02600039B42361B7833705EE073
:105A24004806DAD5ADB2D8E709681A68080605D57C
:105A3400111D1960136862691A6006E04906F7D5FA
:105A4400111D19601368A28A1A800023049E236121
:105A540054E01A68111D196016680021626830004C
:105A640000F06AF8002801D0801B6060636823613D
:105A74000023049A137041E02369320006990598C3
:105A8400079DA847431C43D0236800259B070FD4D8
:105A9400099BE06898423DDA18003BE022000123AC
:105AA400193206990598079EB047431C30D001353A
:105AB400E368099A9B1A9D42F0DBE9E7002DA9D01F
:105AC400049E28003900FEF767FA039B013E5B5CE5
:105AD400280033703900FEF7D9F9051EF1D1082FDB
:105AE40009D12368DB0706D563682269934202DC87
:105AF4003023013E3370049B9B1B2361079B09AA3F
:105B040000932100069B0598FFF782FE431CB3D146
:105B1400012040420BB0F0BDA03A00208F3A002093
:105B24000B1E04D0FF2A04D98A2303608B3B180080
:105B340070470A700123FAE7C9B28218904201D172
:105B44000020704703788B42FBD00130F6E7F8B5AC
:105B540007000D001600002905D11100FFF7E0FA37
:105B640004002000F8BD002A03D1FFF78FFA3400A7
:105B7400F7E700F012F82C008642F2D93100380021
:105B8400FFF7CEFA041EECD029003200FFF75BFACF
:105B940029003800FFF77AFAE3E70B1F1B68181F88
:105BA400002B01DA0B58C018704700000E4A10B5DC
:105BB40011680300002901D10C491160694610687D
:105BC400C3188B4206D80A490A4C0968A14208D076
:105BD4008B4206D9FFF70EFA0C23036001204042E2
:105BE40010BD1360FCE7C0465CEF02208056032022
:105BF400980B0020ADDEFECA034B8000C35810B5DD
:105C0400002B00D0984710BD10DC0220EFF3108267
:105C1400024B1A60012383F31088704790DC022042
:105C240010B50400FFF7F2FF15496200535A002B28
:105C340003D0535A013B9BB253528B5A002B0BD1C6
:105C4400032C0ED00F481049104B445A9A5A104B4B
:105C5400234393439BB243520E4B1B6883F3108838
:105C640010BD7F210C4BDA780A40DA70DA783F39BC
:105C74008A43DA708022D97852420A43DA70EBE719
:105C840094DC022000E00140FE030000FC08002038
:105C940000A5FFFF90DC0220000D0440013800281D
:105CA400FCD1704770B50400FFF7B0FF11496200E2
:105CB400535A002B0BD1032C12D00F4D0F4C104B09
:105CC4002E5B1048D35A304303439BB22B538B5A59
:105CD40001339BB28B520C4B1B6883F3108870BD4D
:105CE4007F240A4BD8782040D8704020DC782043A9
:105CF400D870ECE794DC022000E00140FE030000D1
:105D0400FC08002000A5FFFF90DC0220000D0440E9
:105D140000280BD00721174B174ADB7F0B40022BBF
:105D240021D006D8002B0FD0012B15D001204042E2
:105D340011E0042B17D001D3052BF7D1136A0F4AB6
:105D44005B015B0F1A410CE0126A0C495201520FBD
:105D5400D140016000207047136A094A5B015B0F60
:105D6400DA400260F6E7136A80225B015B0F1202DD
:105D7400F6E7C04607E0014000E001400048E801C2
:105D840080841E0000280BD00721174B174ADB7FA5
:105D94000B40022B21D006D8002B0FD0012B15D09D
:105DA4000120404211E0042B17D001D3052BF7D179
:105DB400136A0F4A5B055B0F1A410CE0126A0C4927
:105DC4005205520FD140016000207047136A094AFE
:105DD4005B055B0FDA400260F6E7136A80225B051D
:105DE4005B0F1202F6E7C04607E0014000E0014005
:105DF4000048E80180841E0070B5072807D80729E9
:105E040005D8072806D007293AD088423FD901206F
